:020000040000FA
:100000000C945E000C9403050C94DC040C948600A4
:100010000C9486000C9486000C9486000C94860048
:100020000C9486000C9486000C9486000C94860038
:100030000C9486000C9486000C9486000C94860028
:100040000C9492040C9486000C9450050C942A0590
:100050000C9486000C9486000C9486000C94860008
:100060000C9486000C9486000000000024002700F9
:100070002A0000000008000201000003040700003D
:10008000000000000000010204081020408001026E
:1000900004081020010204081020000000002500C0
:1000A00028002B00040404040404040402020202D5
:1000B00002020303030303038205530711241FBE37
:1000C000CFEFD8E0DEBFCDBF11E0A0E0B1E0ECE0C3
:1000D000F2E102C005900D92A433B107D9F721E0F7
:1000E000A4E3B1E001C01D92AA3FB207E1F710E01E
:1000F000CDE5D0E004C02197FE010E94CE07CC35AB
:10010000D107C9F70E9423060C94F9080C9400004B
:1001100090E0FC01EE58FF4F2491FC01EA57FF4F9D
:100120003491FC01EC55FF4FE491EE23B9F022230A
:1001300039F02330F1F098F4213009F1223019F12F
:10014000F0E0EE0FFF1FE656FF4FA591B4918FB779
:10015000F894EC9130953E233C938FBF089527305F
:10016000A9F02830C9F0243059F7809180008F7DA4
:1001700003C0809180008F7780938000E1CF84B5A9
:100180008F7784BDDDCF84B58F7DFBCF8091B000AC
:100190008F778093B000D4CF8091B0008F7DF9CF5E
:1001A0001F93CF93DF9311E0180F2091E8011217EE
:1001B000A1F1C091E901D091EA01215070E060E025
:1001C00061F08F3FF1F430E050E040E06FEF7FEFFF
:1001D00080E090E00E946307B901FE014091E401D4
:1001E0005091E501CF018C1B9D0B8417950798F466
:1001F0004081469FC001479F900D11249083319606
:10020000EDCF812F90E0982F88270197622F70E023
:100210000E94B307E2CF1093E801DF91CF911F91C5
:100220000895CF93DF9390E0FC01EA57FF4F2491AC
:100230008C559F4FFC0184918823C9F090E0880F72
:10024000991FFC01E859FF4FA591B491FC01E656B6
:10025000FF4FC591D49161110DC09FB7F8948C9157
:10026000209582238C938881282328839FBFDF9148
:10027000CF910895623051F49FB7F8943C91822F4A
:10028000809583238C93E8812E2BEFCF8FB7F89442
:10029000EC912E2B2C938FBFEACF3FB7F89480912F
:1002A0003D0190913E01A0913F01B091400126B5E2
:1002B000A89B05C02F3F19F00196A11DB11D3FBF9E
:1002C000BA2FA92F982F8827BC01CD01620F711D6D
:1002D000811D911D42E0660F771F881F991F4A9567
:1002E000D1F708950F931F93CF93DF93CDB7DEB768
:1002F00029970FB6F894DEBF0FBECDBF0E944D0107
:100300000091EF011091F0012091F1013091F20183
:10031000601771078207930740F46093EF017093B1
:10032000F0018093F1019093F2010091EF0110919F
:10033000F0012091F1013091F201601B710B820BF1
:10034000930B6C32714081059105C0F2F894809155
:10035000E4019091E5019A838983E091E901F091AC
:10036000EA01DF011196808189879091E001E09197
:10037000F301F091F4018091F501992309F445C04E
:100380009081982B98879081809589238F838F8186
:100390008C8388E08B8358856F8149853B812C81D4
:1003A00089819A81508347FD252F3A952083262FF6
:1003B00039F0441F00C000006083000000C0F2CF8D
:1003C00038E04D9160830000019761F7F093F401EC
:1003D000E093F30149873B832C839A838983789444
:1003E0000E944D016093EF017093F0018093F10141
:1003F0009093F20129960FB6F894DEBF0FBECDBFE1
:10040000DF91CF911F910F9108959081982B98873C
:100410009081809589238F838F818E8388E08D835F
:1004200058856F8149853D812E8189819A815083CC
:1004300047FD252F00C000C0208300C000C000C0C1
:1004400000C000C060830000262F3A9541F0441F91
:10045000000000C000C000C000C000C0E8CF38E00D
:100460004D9100C0608300C0019709F7F093F4013B
:10047000E093F30149873D832E83AFCF8F929F9204
:10048000AF92BF92CF92DF92EF92FF926B017C010D
:100490000E944D014B015C01C114D104E104F1043F
:1004A000B9F00E944D01681979098A099B09683ED3
:1004B00073408105910580F321E0C21AD108E1085B
:1004C000F10888EE880E83E0981EA11CB11CE4CFD1
:1004D000FF90EF90DF90CF90BF90AF909F908F9064
:1004E0000895CF92DF92EF92FF920F931F93CF93D5
:1004F000DF93AB01BC01CB01AA27BB27E82EF52E69
:10050000EC01B0E0A0E0D42E2091E2013091E301B3
:100510008091E9019091EA01A217B30708F041C068
:10052000CD2C2091E8018701222371F02C9FF0014E
:100530002D9FF00D11240F2F2F9DF00111241F2F3F
:10054000249F90011124C32EE091EE012091EB0134
:10055000E2131BC09D01220F331F2A0F3B1F820F86
:10056000931FE091EB01E80FF92FF11D0083E0915B
:10057000EC01E80FF92FF11D10832091ED01820F9E
:10058000911DFC01C0821196BFCF9D01220F331F28
:10059000220F331F820F931FE80FF92FF11D1082D6
:1005A000E0CF892B11F00E94720162E370E080E0DD
:1005B00090E00E943E028091410190914201DF91C2
:1005C000CF911F910F91FF90EF90DF90CF90089502
:1005D0008091410190914201019690934201809354
:1005E000410108950895AF92BF92CF92DF92EF92AA
:1005F000FF920F931F93CF93DF936C017B018B01CD
:10060000040F151FEB015E01AE18BF08C017D1071C
:1006100059F06991D601ED91FC910190F081E02DA6
:10062000C6010995892B79F7C501DF91CF911F91FB
:100630000F91FF90EF90DF90CF90BF90AF90089513
:10064000FC01538D448D252F30E0842F90E0821BD8
:10065000930B541710F0CF96089501970895FC015D
:10066000918D828D981761F0A28DAE0FBF2FB11DB5
:100670005D968C91928D9F5F9F73928F90E008950D
:100680008FEF9FEF0895FC01918D828D981731F0C7
:10069000828DE80FF11D858D90E008958FEF9FEF1B
:1006A0000895FC01918D228D892F90E0805C9F4FF1
:1006B000821B91098F739927089583E491E00E942A
:1006C000510321E0892B09F420E0822F089580E076
:1006D00090E0892B29F00E945D0381110C940000A9
:1006E0000895FC01A48DA80FB92FB11DA35ABF4FC7
:1006F0002C91848D90E001968F739927848FA68921
:10070000B7892C93A089B1898C91837080648C9374
:10071000938D848D981306C00288F389E02D808123
:100720008F7D80830895EF92FF920F931F93CF9355
:10073000DF93EC0181E0888F9B8D8C8D98131AC01C
:10074000E889F989808185FF15C09FB7F894EE8903
:10075000FF896083E889F989808183708064808360
:100760009FBF81E090E0DF91CF911F910F91FF90AB
:10077000EF900895F62E0B8D10E00F5F1F4F0F7353
:100780001127E02E8C8D8E110CC00FB607FCFACF0E
:10079000E889F989808185FFF5CFCE010E94710338
:1007A000F1CFEB8DEC0FFD2FF11DE35AFF4FF082DF
:1007B0009FB7F8940B8FEA89FB8980818062CFCF45
:1007C000CF93DF93EC01888D8823B9F0AA89BB8988
:1007D000E889F9898C9185FD03C0808186FD0DC073
:1007E0000FB607FCF7CF8C9185FFF2CF808185FF94
:1007F000EDCFCE010E947103E9CFDF91CF91089533
:10080000FC0101900020E9F73197AF01481B590B1B
:10081000BC0183E491E00C94F3028F929F92AF921B
:10082000BF92CF92DF92EF92FF920F931F93CF93DD
:10083000DF93CDB7DEB7A1970FB6F894DEBF0FBE3A
:10084000CDBF6C01990FEE08FF08F7FE47C06DE2BF
:1008500083E491E00E9493038C0122273327A901AE
:100860002C193D094E095F0919A2CE0181967C0120
:100870009AE0892E912CA12CB12CCA01B901A501B5
:1008800094010E948207605DF70162937F01211548
:1008900031054105510589F790E080E0309719F066
:1008A000CF010E940004080F191F8CE191E00E9403
:1008B0000004800F911FA1960FB6F894DEBF0FBE03
:1008C000CDBFDF91CF911F910F91FF90EF90DF90FF
:1008D000CF90BF90AF909F908F900895A701960101
:1008E00019A28E010F5D1F4F8AE0C82ED12CE12C7A
:1008F000F12CCA01B901A70196010E948207605D2F
:10090000F80162938F01211531054105510589F7E1
:10091000309729F0CF010E9400048C01C6CF10E06F
:1009200000E0C3CF1F920F920FB60F9211242F93A6
:100930003F938F939F93AF93BF9380913901909191
:100940003A01A0913B01B0913C013091380123E084
:10095000230F2D3758F50196A11DB11D20933801A5
:100960008093390190933A01A0933B01B0933C01ED
:1009700080913D0190913E01A0913F01B0914001D5
:100980000196A11DB11D80933D0190933E01A0935E
:100990003F01B0934001BF91AF919F918F913F91E3
:1009A0002F910F900FBE0F901F90189526E8230FE0
:1009B0000296A11DB11DD2CF1F920F920FB60F92BA
:1009C00011242F933F934F935F936F937F938F9354
:1009D0009F93AF93BF93EF93FF93E0910201F09148
:1009E00003010995FF91EF91BF91AF919F918F9175
:1009F0007F916F915F914F913F912F910F900FBE1B
:100A00000F901F9018951F920F920FB60F921124FE
:100A10002F933F934F935F936F937F938F939F9306
:100A2000AF93BF93EF93FF93E0910001F091010129
:100A30000995FF91EF91BF91AF919F918F917F9118
:100A40006F915F914F913F912F910F900FBE0F903B
:100A50001F9018951F920F920FB60F9211242F938B
:100A60003F934F935F936F937F938F939F93AF9336
:100A7000BF93EF93FF9383E491E00E947103FF9192
:100A8000EF91BF91AF919F918F917F916F915F9106
:100A90004F913F912F910F900FBE0F901F9018957F
:100AA0001F920F920FB60F9211242F938F939F9343
:100AB000EF93FF93E0915301F09154018081E09115
:100AC0005901F0915A0182FD1BC0908180915C0117
:100AD0008F5F8F7320915D01821741F0E0915C017F
:100AE000F0E0ED5BFE4F958F80935C01FF91EF91FD
:100AF0009F918F912F910F900FBE0F901F9018957F
:100B00008081F4CF109246011092450188EE93E067
:100B1000A0E0B0E08093470190934801A093490181
:100B2000B0934A018EE091E0909344018093430199
:100B300085EC90E09093500180934F0184EC90E01D
:100B4000909352018093510180EC90E09093540176
:100B50008093530181EC90E090935601809355016E
:100B600082EC90E0909358018093570186EC90E0DE
:100B700090935A018093590110925C0110925D018B
:100B800010925E0110925F011092E1011092E80153
:100B90001092EF011092F0011092F1011092F20107
:100BA00081E08093EE018093EB011092EC0192E0E2
:100BB0009093ED018093E00184EB90E09093E50148
:100BC0008093E4010E94D4079093EA018093E901A5
:100BD000009781F124EBFC0111922A95E9F78CE34F
:100BE00090E09093E3018093E20186E090E090939F
:100BF000E7018093E6018091E101882339F061E00B
:100C000086E00E94110186E00E948800EAEAF0E096
:100C1000E491F0E0EE0FFF1FE656FF4F85919491AF
:100C20009093F4018093F301ECE8F0E0E491E09319
:100C3000F50108951092E5011092E4011092E3018C
:100C40001092E201D2CF789484B5826084BD84B5DD
:100C5000816084BD85B5826085BD85B5816085BDB7
:100C600080916E00816080936E001092810080916F
:100C700081008260809381008091810081608093F7
:100C80008100809180008160809380008091B1001C
:100C900084608093B1008091B00081608093B00047
:100CA00080917A00846080937A0080917A008260DB
:100CB00080937A0080917A00816080937A0080919D
:100CC0007A00806880937A001092C10062E082E02E
:100CD0000E9411018091E6019091E70197FD07C004
:100CE00061E00E9411018091E6010E94880081E08C
:100CF0008093E10182E30E94D00060E070E0CB01CC
:100D00000E9471028091E9019091EA01892B11F012
:100D10000E947201E0915301F091540182E08083BE
:100D2000E0914F01F09150011082E0915101F0915A
:100D3000520180E1808310925B01E0915701F091B4
:100D4000580186E08083E0915501F0915601808141
:100D500080618083E0915501F09156018081886027
:100D60008083E0915501F0915601808180688083F5
:100D7000E0915501F091560180818F7D808388EE4E
:100D800092E09093010180930001809169008C7F33
:100D9000826080936900E89AC0E4CC24CA9483E01E
:100DA000D82EE12CF12C00E010E0C0937C00809163
:100DB0007A00806480937A0080917A0086FDFCCF6F
:100DC000A0917800B09179002FEF30E00E94C70722
:100DD000A70196010E946307822F2093360130936A
:100DE00037010E94D0008FE191E00E9400048091C1
:100DF0004101909142010E940D0480913401909133
:100E00003501892B41F0809136010E94D00010926B
:100E100035011092340186E291E00E940004809135
:100E20003601909137010E940D048091410190910B
:100E300042018230910571F134F4019749F060E08C
:100E400070E0CB0109C08330910541F10497B9F7F7
:100E50006FE770E080E090E00E94710280914101B4
:100E600090914201059724F01092420110924101A5
:100E70006AE070E080E090E00E943E0201151105FA
:100E800009F493CF0E945D03882309F48ECF0E945A
:100E900000008BCF6FEF70E0CB01DECF60E07FEF23
:100EA0008FEF90E0D9CF8091E9019091EA010E9403
:100EB00070088091E6019091E70197FD03C060E022
:100EC0000C9411010895052E97FB1EF400940E94C6
:100ED0007A0757FD07D00E94820707FC03D04EF423
:100EE0000C947A0750954095309521953F4F4F4F80
:100EF0005F4F089590958095709561957F4F8F4FC6
:100F00009F4F0895A1E21A2EAA1BBB1BFD010DC025
:100F1000AA1FBB1FEE1FFF1FA217B307E407F507A9
:100F200020F0A21BB30BE40BF50B661F771F881F85
:100F3000991F1A9469F760957095809590959B011B
:100F4000AC01BD01CF010895A29FB001B39FC001C4
:100F5000A39F700D811D1124911DB29F700D811DE5
:100F60001124911D0895AA1BBB1B51E107C0AA1FA4
:100F7000BB1FA617B70710F0A61BB70B881F991F3A
:100F80005A95A9F780959095BC01CD0108950E94CE
:100F9000A407B7FF0895821B930B0895EE0FFF1F60
:100FA0000590F491E02D09940F931F93CF93DF9355
:100FB0008230910510F482E090E0E091F801F09128
:100FC000F90130E020E0B0E0A0E0309799F421157D
:100FD000310509F44AC0281B390B24303105D8F5F6
:100FE0008A819B816115710589F1FB01938382835D
:100FF000FE0111C0408151810281138148175907B8
:10100000E0F04817590799F4109761F012960C9385
:10101000129713961C933296CF01DF91CF911F91B7
:101020000F9108950093F8011093F901F4CF211561
:10103000310551F04217530738F0A901DB019A013D
:10104000BD01DF01F801C1CFEF01F9CF9093F901A4
:101050008093F801CDCFFE01E20FF31F81939193AE
:101060002250310939832883D7CF2091F60130915E
:10107000F701232B41F420910601309107013093B1
:10108000F7012093F601209104013091050121150B
:10109000310541F42DB73EB7409108015091090147
:1010A000241B350BE091F601F091F701E217F307ED
:1010B000A0F42E1B3F0B2817390778F0AC014E5FC8
:1010C0005F4F2417350748F04E0F5F1F5093F7010D
:1010D0004093F601819391939FCFF0E0E0E09CCFA5
:1010E000CF93DF930097E9F0FC01329713821282CD
:1010F000A091F801B091F901ED0130E020E01097E6
:10110000A1F420813181820F931F2091F60130914B
:10111000F7012817390709F061C0F093F701E09350
:10112000F601DF91CF910895EA01CE17DF07E8F5C8
:101130004A815B819E0141155105B1F7E901FB83AD
:10114000EA8349915991C40FD51FEC17FD0761F44B
:10115000808191810296840F951FE901998388838C
:10116000828193819B838A83F0E0E0E012968D91E7
:101170009C9113970097B9F52D913C911197CD0152
:101180000296820F931F2091F6013091F7012817E4
:10119000390739F6309751F51092F9011092F8019C
:1011A000B093F701A093F601BCCFD383C2834081F3
:1011B0005181840F951FC817D90761F44E5F5F4FA7
:1011C00088819981480F591F518340838A819B816F
:1011D000938382832115310509F0B0CFF093F90193
:1011E000E093F8019ECFFD01DC01C0CF1382128293
:1011F000D7CF10E0CDE5D0E004C0FE010E94CE07BD
:101200002196CE35D107C9F7F894FFCFF202F2024A
:101210000000FA018000000000009303F3022003A5
:10122000E00351032F0343030D0A004D6F64653A39
:1012300020004272696768746E6573733A2000001B
:107E0000112484B714BE81FFF0D085E080938100F7
:107E100082E08093C00088E18093C10086E0809377
:107E2000C20080E18093C4008EE0C9D0259A86E02C
:107E300020E33CEF91E0309385002093840096BBD3
:107E4000B09BFECF1D9AA8958150A9F7CC24DD24C4
:107E500088248394B5E0AB2EA1E19A2EF3E0BF2EE7
:107E6000A2D0813461F49FD0082FAFD0023811F036
:107E7000013811F484E001C083E08DD089C08234E0
:107E800011F484E103C0853419F485E0A6D080C0E4
:107E9000853579F488D0E82EFF2485D0082F10E0AE
:107EA000102F00270E291F29000F111F8ED06801E7
:107EB0006FC0863521F484E090D080E0DECF843638
:107EC00009F040C070D06FD0082F6DD080E0C81688
:107ED00080E7D80618F4F601B7BEE895C0E0D1E017
:107EE00062D089930C17E1F7F0E0CF16F0E7DF06D8
:107EF00018F0F601B7BEE89568D007B600FCFDCFD4
:107F0000A601A0E0B1E02C9130E011968C91119780
:107F100090E0982F8827822B932B1296FA010C0160
:107F200087BEE89511244E5F5F4FF1E0A038BF0790
:107F300051F7F601A7BEE89507B600FCFDCF97BE46
:107F4000E89526C08437B1F42ED02DD0F82E2BD052
:107F50003CD0F601EF2C8F010F5F1F4F84911BD097
:107F6000EA94F801C1F70894C11CD11CFA94CF0C13
:107F7000D11C0EC0853739F428D08EE10CD085E9AC
:107F80000AD08FE07ACF813511F488E018D01DD067
:107F900080E101D065CF982F8091C00085FFFCCF94
:107FA0009093C60008958091C00087FFFCCF809118
:107FB000C00084FD01C0A8958091C6000895E0E648
:107FC000F0E098E1908380830895EDDF803219F02E
:107FD00088E0F5DFFFCF84E1DECF1F93182FE3DFCA
:107FE0001150E9F7F2DF1F91089580E0E8DFEE27F6
:047FF000FF270994CA
:027FFE00040479
:00000001FF
