:100000000C945E000C94C7050C94A0050C9486001B
:100010000C9486000C9486000C9486000C94860048
:100020000C9486000C9486000C9486000C94860038
:100030000C9486000C9486000C9486000C94860028
:100040000C9456050C9486000C9414060C94EE0542
:100050000C9486000C9486000C9486000C94860008
:100060000C9486000C9486000000000024002700F9
:100070002A0000000008000201000003040700003D
:10008000000000000000010204081020408001026E
:1000900004081020010204081020000000002500C0
:1000A00028002B00040404040404040402020202D5
:1000B00002020303030303034606E10811241FBEE3
:1000C000CFEFD8E0DEBFCDBF11E0A0E0B1E0E8E2C5
:1000D000F5E102C005900D92A433B107D9F721E0F4
:1000E000A4E3B1E001C01D92AA3FB207E1F710E01E
:1000F000CDE5D0E004C02197FE010E945C09CC351B
:10010000D107C9F70E94E7060C94870A0C940000F7
:1001100090E0FC01EE58FF4F2491FC01EA57FF4F9D
:100120003491FC01EC55FF4FE491EE23B9F022230A
:1001300039F02330F1F098F4213009F1223019F12F
:10014000F0E0EE0FFF1FE656FF4FA591B4918FB779
:10015000F894EC9130953E233C938FBF089527305F
:10016000A9F02830C9F0243059F7809180008F7DA4
:1001700003C0809180008F7780938000E1CF84B5A9
:100180008F7784BDDDCF84B58F7DFBCF8091B000AC
:100190008F778093B000D4CF8091B0008F7DF9CF5E
:1001A0001F93CF93DF9311E0180F2091E8011217EE
:1001B000A1F1C091E901D091EA01215070E060E025
:1001C00061F08F3FF1F430E050E040E06FEF7FEFFF
:1001D00080E090E00E94F108B901FE014091E40145
:1001E0005091E501CF018C1B9D0B8417950798F466
:1001F0004081469FC001479F900D11249083319606
:10020000EDCF812F90E0982F88270197622F70E023
:100210000E944109E2CF1093E801DF91CF911F9135
:1002200008958F929F92AF92BF92CF92DF92EF92FA
:10023000FF92CF932091E2013091E301821793075F
:10024000E8F54B01AA24BB24C82DC52ED62EE72ED7
:10025000FF24BC2DA42F2091E801222361F0829E6F
:1002600040011124C92D2C9D60011124BD2D249F16
:10027000F0011124AF2FE091EE01E090E901F09040
:10028000EA013091EB01E31323C09C01220F331FDD
:10029000820F931F8E0D9F1DE091EB01E80FF92F48
:1002A000F11DC083E091EC01E80FF92FF11DB0833F
:1002B0002091ED01820F911DFC01A083CF91FF9051
:1002C000EF90DF90CF90BF90AF909F908F90089568
:1002D000880F991F880F991F8E0D9F1D472F552737
:1002E00066277727222349F030E0249F7001259F5D
:1002F000F00C349FF00C11244F2DE80FF92FF11D55
:100300004083CACFCF93DF9390E0FC01EA57FF4FC1
:1003100024918C559F4FFC0184918823C9F090E073
:10032000880F991FFC01E859FF4FA591B491FC017A
:10033000E656FF4FC591D49161110DC09FB7F89457
:100340008C91209582238C938881282328839FBFBA
:10035000DF91CF910895623051F49FB7F8943C91AA
:10036000822F809583238C93E8812E2BEFCF8FB73C
:10037000F894EC912E2B2C938FBFEACF3FB7F894D3
:1003800080913D0190913E01A0913F01B0914001CB
:1003900026B5A89B05C02F3F19F00196A11DB11DE0
:1003A0003FBFBA2FA92F982F8827BC01CD01620F1C
:1003B000711D811D911D42E0660F771F881F991FD7
:1003C0004A95D1F708950F931F93CF93DF93CDB73D
:1003D000DEB729970FB6F894DEBF0FBECDBF809170
:1003E000E9019091EA01892B09F47CC00E94BE01C9
:1003F0000091EF011091F0012091F1013091F20193
:10040000601771078207930740F46093EF017093C0
:10041000F0018093F1019093F2010091EF011091AE
:10042000F0012091F1013091F201601B710B820B00
:10043000930B6C32714081059105C0F2F894809164
:10044000E4019091E5019A838983E091E901F091BB
:10045000EA01DF011196808189879091E001E091A6
:10046000F301F091F4018091F501992309F445C05D
:100470009081982B98879081809589238F838F8195
:100480008C8388E08B8358856F8149853B812C81E3
:1004900089819A81508347FD252F3A952083262F05
:1004A00039F0441F00C000006083000000C0F2CF9C
:1004B00038E04D9160830000019761F7F093F401FB
:1004C000E093F30149873B832C839A838983789453
:1004D0000E94BE016093EF017093F0018093F101DF
:1004E0009093F20129960FB6F894DEBF0FBECDBFF0
:1004F000DF91CF911F910F9108959081982B98874C
:100500009081809589238F838F818E8388E08D836E
:1005100058856F8149853D812E8189819A815083DB
:1005200047FD252F00C000C0208300C000C000C0D0
:1005300000C000C060830000262F3A9541F0441FA0
:10054000000000C000C000C000C000C0E8CF38E01C
:100550004D9100C0608300C0019709F7F093F4014A
:10056000E093F30149873D832E83AFCF8F929F9213
:10057000AF92BF92CF92DF92EF92FF926B017C011C
:100580000E94BE014B015C01C114D104E104F104DD
:10059000B9F00E94BE01681979098A099B09683E71
:1005A00073408105910580F321E0C21AD108E1086A
:1005B000F10888EE880E83E0981EA11CB11CE4CFE0
:1005C000FF90EF90DF90CF90BF90AF909F908F9073
:1005D0000895CF92DF92EF92FF92CF93DF936B015A
:1005E0007C01D0E0C0E08091E2019091E301C81766
:1005F000D907A8F4B701A601CE010E9411010E94FB
:10060000E30162E370E080E090E00E94B602809136
:10061000410190914201019711F42196E4CFDF91BD
:10062000CF91FF90EF90DF90CF9008958F929F929F
:10063000AF92BF92EF92FF920F931F93CF93DF93EE
:100640004B015C018AE0E82EF12CD0E0C0E010E024
:1006500000E08091E2019091E3010817190750F43E
:10066000B501A401CE01800F911F0E9411010D5F01
:100670001F4FEFCF0E94E30162E370E080E090E063
:100680000E94B60210E000E08091E2019091E30147
:100690000817190758F440E050E0BA01CE01800F66
:1006A000911F0E9411010D5F1F4FEECF2196C330A5
:1006B000D10569F68091410190914201029729F498
:1006C00081E0E81AF10809F0C0CFDF91CF911F91C6
:1006D0000F91FF90EF90BF90AF909F908F900895F3
:1006E0008091410190914201019690934201809343
:1006F000410108950895AF92BF92CF92DF92EF9299
:10070000FF920F931F93CF93DF936C017B018B01BB
:10071000040F151FEB015E01AE18BF08C017D1070B
:1007200059F06991D601ED91FC910190F081E02D95
:10073000C6010995892B79F7C501DF91CF911F91EA
:100740000F91FF90EF90DF90CF90BF90AF90089502
:10075000FC01538D448D252F30E0842F90E0821BC7
:10076000930B541710F0CF96089501970895FC014C
:10077000918D828D981761F0A28DAE0FBF2FB11DA4
:100780005D968C91928D9F5F9F73928F90E00895FC
:100790008FEF9FEF0895FC01918D828D981731F0B6
:1007A000828DE80FF11D858D90E008958FEF9FEF0A
:1007B0000895FC01918D228D892F90E0805C9F4FE0
:1007C000821B91098F739927089583E491E00E9419
:1007D000D90321E0892B09F420E0822F089580E0DD
:1007E00090E0892B29F00E94E50381110C94000010
:1007F0000895FC01A48DA80FB92FB11DA35ABF4FB6
:100800002C91848D90E001968F739927848FA6890F
:10081000B7892C93A089B1898C91837080648C9363
:10082000938D848D981306C00288F389E02D808112
:100830008F7D80830895EF92FF920F931F93CF9344
:10084000DF93EC0181E0888F9B8D8C8D98131AC00B
:10085000E889F989808185FF15C09FB7F894EE89F2
:10086000FF896083E889F98980818370806480834F
:100870009FBF81E090E0DF91CF911F910F91FF909A
:10088000EF900895F62E0B8D10E00F5F1F4F0F7342
:100890001127E02E8C8D8E110CC00FB607FCFACFFD
:1008A000E889F989808185FFF5CFCE010E94F9039F
:1008B000F1CFEB8DEC0FFD2FF11DE35AFF4FF082CE
:1008C0009FB7F8940B8FEA89FB8980818062CFCF34
:1008D000CF93DF93EC01888D8823B9F0AA89BB8977
:1008E000E889F9898C9185FD03C0808186FD0DC062
:1008F0000FB607FCF7CF8C9185FFF2CF808185FF83
:10090000EDCFCE010E94F903E9CFDF91CF91089599
:10091000282F2095253598F4822F880F880F622F75
:10092000681B9FEF960F692F70E090E080E0CB018D
:1009300077276627322F330F230F622B08952A3A29
:1009400088F42555622F660F620F70E090E080E01A
:10095000982F872F762F6627322F330F330F231BC5
:100960002150EBCF2A5A822F880F880F322F381B45
:100970003150622F660F620F70E090E080E0CB0193
:1009800077276627732B0895FC0101900020E9F773
:100990003197AF01481B590BBC0183E491E00C94E3
:1009A0007B038F929F92AF92BF92CF92DF92EF9292
:1009B000FF920F931F93CF93DF93CDB7DEB7A1972D
:1009C0000FB6F894DEBF0FBECDBF6C01990FEE08D5
:1009D000FF08F7FE47C06DE283E491E00E941B042C
:1009E0008C0122273327A9012C193D094E095F09E3
:1009F00019A2CE0181967C019AE0892E912CA12C1E
:100A0000B12CCA01B901A50194010E941009605DD1
:100A1000F70162937F01211531054105510589F7E1
:100A200090E080E0309719F0CF010E94C404080FD5
:100A3000191F8CE191E00E94C404800F911FA196C0
:100A40000FB6F894DEBF0FBECDBFDF91CF911F91DF
:100A50000F91FF90EF90DF90CF90BF90AF909F905D
:100A60008F900895A701960119A28E010F5D1F4F67
:100A70008AE0C82ED12CE12CF12CCA01B901A701C2
:100A800096010E941009605DF80162938F012115A3
:100A900031054105510589F7309729F0CF010E94B2
:100AA000C4048C01C6CF10E000E0C3CF1F920F92A8
:100AB0000FB60F9211242F933F938F939F93AF9371
:100AC000BF938091390190913A01A0913B01B0917F
:100AD0003C013091380123E0230F2D3758F5019662
:100AE000A11DB11D209338018093390190933A01E3
:100AF000A0933B01B0933C0180913D0190913E0158
:100B0000A0913F01B09140010196A11DB11D8093BC
:100B10003D0190933E01A0933F01B0934001BF91EE
:100B2000AF919F918F913F912F910F900FBE0F909A
:100B30001F90189526E8230F0296A11DB11DD2CF54
:100B40001F920F920FB60F9211242F933F934F9342
:100B50005F936F937F938F939F93AF93BF93EF9325
:100B6000FF93E0910201F09103010995FF91EF914C
:100B7000BF91AF919F918F917F916F915F914F91B5
:100B80003F912F910F900FBE0F901F9018951F92BD
:100B90000F920FB60F9211242F933F934F935F93B1
:100BA0006F937F938F939F93AF93BF93EF93FF9335
:100BB000E0910001F09101010995FF91EF91BF9142
:100BC000AF919F918F917F916F915F914F913F91E5
:100BD0002F910F900FBE0F901F9018951F920F929C
:100BE0000FB60F9211242F933F934F935F936F9300
:100BF0007F938F939F93AF93BF93EF93FF9383E480
:100C000091E00E94F903FF91EF91BF91AF919F9105
:100C10008F917F916F915F914F913F912F910F90A5
:100C20000FBE0F901F9018951F920F920FB60F9244
:100C300011242F938F939F93EF93FF93E091530190
:100C4000F09154018081E0915901F0915A0182FDA7
:100C50001BC0908180915C018F5F8F7320915D013B
:100C6000821741F0E0915C01F0E0ED5BFE4F958F63
:100C700080935C01FF91EF919F918F912F910F9045
:100C80000FBE0F901F9018958081F4CF10924601EF
:100C90001092450188EE93E0A0E0B0E08093470118
:100CA00090934801A0934901B0934A018EE091E0EE
:100CB000909344018093430185EC90E09093500120
:100CC00080934F0184EC90E0909352018093510106
:100CD00080EC90E0909354018093530181EC90E07C
:100CE000909356018093550182EC90E090935801C7
:100CF0008093570186EC90E090935A0180935901BC
:100D000010925C0110925D0110925E0110925F01E1
:100D10001092E1011092E8011092EF011092F0019F
:100D20001092F1011092F20181E08093EE01809324
:100D3000EB011092EC0192E09093ED018093E001C1
:100D400084EB90E09093E5018093E4010E946209B6
:100D50009093EA018093E901009781F124EBFC0173
:100D600011922A95E9F78CE390E09093E301809348
:100D7000E20186E090E09093E7018093E6018091A4
:100D8000E101882339F061E086E00E94820186E07B
:100D90000E948800EAEAF0E0E491F0E0EE0FFF1F25
:100DA000E656FF4F859194919093F4018093F3015F
:100DB000ECE8F0E0E491E093F50108951092E5018C
:100DC0001092E4011092E3011092E201D2CF7894E4
:100DD00084B5826084BD84B5816084BD85B5826040
:100DE00085BD85B5816085BD80916E0081608093F1
:100DF0006E0010928100809181008260809381005A
:100E00008091810081608093810080918000816069
:100E1000809380008091B10084608093B1008091C4
:100E2000B00081608093B00080917A0084608093EC
:100E30007A0080917A00826080937A0080917A00B3
:100E4000816080937A0080917A00806880937A0034
:100E50001092C10062E082E00E9482018091E6016E
:100E60009091E70197FD07C061E00E9482018091A7
:100E7000E6010E94880081E08093E10182E30E9404
:100E8000D0000E94E301E0915301F091540182E00F
:100E90008083E0914F01F09150011082E091510167
:100EA000F091520180E1808310925B01E091570143
:100EB000F091580186E08083E0915501F091560150
:100EC000808180618083E0915501F091560180819D
:100ED00088608083E0915501F0915601808180689F
:100EE0008083E0915501F091560180818F7D808350
:100EF00080E793E090930101809300018091690065
:100F00008C7F826080936900E89A80E4582E882460
:100F10008A9493E0992EA12CB12C66246A94712CAA
:100F200030E0C32E30E0D32E50927C0080917A00C6
:100F3000806480937A0080917A0086FDFCCFA09136
:100F40007800B09179002FEF30E00E945509A5019B
:100F500094010E94F108822F2093360130933701CB
:100F60000E94D0008FE191E00E94C4048091410171
:100F7000909142010E94D1048091340190913501F9
:100F8000892B41F0809136010E94D00010923501EA
:100F90001092340186E291E00E94C40480913601EF
:100FA000909137010E94D1048091410190914201BA
:100FB0008330910509F476C01CF58130910509F460
:100FC00045C0029709F45BC08091410190914201B4
:100FD000069724F010924201109241016AE070E0FD
:100FE00080E090E00E94B602C114D10409F49CCFC5
:100FF0000E94E503882309F497CF0E94000094CF54
:101000008430910509F47AC0F12CE12C0597E1F6C2
:10101000D0E0C0E010E000E08091E2019091E301B7
:101020000817190708F09CC0C701800F911FB30172
:101030000E9441090E948804AB01BC01CE01800FCF
:10104000911F0E9411010D5F1F4FE6CF60E070E01D
:101050008FEF90E00E94E90260E07FEF80E090E097
:101060000E94E9026FEF70E080E090E00E94E902E8
:1010700060E070E080E09FEF0E94E902A5CF6FE79B
:101080007FE78FE790E00E94160360E070E08FE753
:1010900090E00E9416036FE770E080E090E00E940D
:1010A000160392CF10E000E0D0E0C0E08091E201B2
:1010B0009091E301C817D90758F48C2F800F0E9434
:1010C0008804AB01BC01CE010E9411012196EECF34
:1010D0000E94E30168E070E080E090E00E94B602C8
:1010E0008091410190914201039709F06DCF0F5F0C
:1010F0001F4F011581E01807B9F666CFD0E0C0E0B8
:10110000F12CE12C10E000E06091E2017091E3012C
:101110000617170780F4C7010E9441098C2F860F1C
:101120000E948804AB01BC01C8010E9411010F5F3D
:101130001F4FF394E9CF0E94E30168E070E080E084
:1011400090E00E94B6028091410190914201049783
:1011500009F03ACF2196C11585E0D80789F634CF3A
:101160000E94E30168E070E080E090E00E94B60237
:1011700010E000E08091E2019091E3010817190767
:1011800058F440E050E0BA01CE01800F911F0E9458
:1011900011010D5F1F4FEECF2196C330D10509F02D
:1011A00039CF8091410190914201059709F00CCF10
:1011B0008FEFE81AF80AE11481E0F80609F028CF69
:1011C00003CF8091E9019091EA010E94FE0980918C
:1011D000E6019091E70197FD03C060E00C94820165
:1011E0000895052E97FB1EF400940E94080957FDF0
:1011F00007D00E94100907FC03D04EF40C94080994
:1012000050954095309521953F4F4F4F5F4F089532
:1012100090958095709561957F4F8F4F9F4F089562
:10122000A1E21A2EAA1BBB1BFD010DC0AA1FBB1FEA
:10123000EE1FFF1FA217B307E407F50720F0A21B5C
:10124000B30BE40BF50B661F771F881F991F1A94C9
:1012500069F760957095809590959B01AC01BD01F3
:10126000CF010895A29FB001B39FC001A39F700D4D
:10127000811D1124911DB29F700D811D1124911D9E
:101280000895AA1BBB1B51E107C0AA1FBB1FA617CD
:10129000B70710F0A61BB70B881F991F5A95A9F71F
:1012A00080959095BC01CD0108950E943209B7FF49
:1012B0000895821B930B0895EE0FFF1F0590F49184
:1012C000E02D09940F931F93CF93DF938230910504
:1012D00010F482E090E0E091F801F091F90130E043
:1012E00020E0B0E0A0E0309799F42115310509F431
:1012F0004AC0281B390B24303105D8F58A819B81DF
:101300006115710589F1FB0193838283FE0111C090
:10131000408151810281138148175907E0F0481735
:10132000590799F4109761F012960C93129713963F
:101330001C933296CF01DF91CF911F910F910895A9
:101340000093F8011093F901F4CF2115310551F004
:101350004217530738F0A901DB019A01BD01DF01F3
:10136000F801C1CFEF01F9CF9093F9018093F80113
:10137000CDCFFE01E20FF31F8193919322503109EB
:1013800039832883D7CF2091F6013091F701232BA1
:1013900041F420910601309107013093F701209329
:1013A000F60120910401309105012115310541F428
:1013B0002DB73EB74091080150910901241B350B10
:1013C000E091F601F091F701E217F307A0F42E1B6C
:1013D0003F0B2817390778F0AC014E5F5F4F241799
:1013E000350748F04E0F5F1F5093F7014093F60109
:1013F000819391939FCFF0E0E0E09CCFCF93DF9378
:101400000097E9F0FC01329713821282A091F80153
:10141000B091F901ED0130E020E01097A1F42081B6
:101420003181820F931F2091F6013091F701281727
:10143000390709F061C0F093F701E093F601DF91FD
:10144000CF910895EA01CE17DF07E8F54A815B8165
:101450009E0141155105B1F7E901FB83EA834991EA
:101460005991C40FD51FEC17FD0761F4808191815C
:101470000296840F951FE901998388838281938165
:101480009B838A83F0E0E0E012968D919C91139704
:101490000097B9F52D913C911197CD010296820FDD
:1014A000931F2091F6013091F7012817390739F67B
:1014B000309751F51092F9011092F801B093F701AD
:1014C000A093F601BCCFD383C28340815181840FA6
:1014D000951FC817D90761F44E5F5F4F88819981C6
:1014E000480F591F518340838A819B819383828354
:1014F0002115310509F0B0CFF093F901E093F8011F
:101500009ECFFD01DC01C0CF13821282D7CF10E045
:10151000CDE5D0E004C0FE010E945C092196CE35E5
:08152000D107C9F7F894FFCFD1
:101528007A037A030000FA018000000000001B041F
:101538007B03A8036804D903B703CB030D0A004D46
:101548006F64653A20004272696768746E657373E8
:041558003A20000035
:00000001FF
