:020000040000FA
:100000000C945E000C9429050C9402050C94860057
:100010000C9486000C9486000C9486000C94860048
:100020000C9486000C9486000C9486000C94860038
:100030000C9486000C9486000C9486000C94860028
:100040000C94B8040C9486000C9476050C9450051E
:100050000C9486000C9486000C9486000C94860008
:100060000C9486000C9486000000000024002700F9
:100070002A0000000008000201000003040700003D
:10008000000000000000010204081020408001026E
:1000900004081020010204081020000000002500C0
:1000A00028002B00040404040404040402020202D5
:1000B0000202030303030303A8056C0711241FBEF8
:1000C000CFEFD8E0DEBFCDBF11E0A0E0B1E0EEE3BE
:1000D000F2E102C005900D92AC33B107D9F722E0EE
:1000E000ACE3B1E001C01D92A230B207E1F710E02D
:1000F000CDE5D0E004C02197FE010E94E707CC3592
:10010000D107C9F70E9449060C9412090C9400000B
:1001100090E0FC01EE58FF4F2491FC01EA57FF4F9D
:100120003491FC01EC55FF4FE491EE23B9F022230A
:1001300039F02330F1F098F4213009F1223019F12F
:10014000F0E0EE0FFF1FE656FF4FA591B4918FB779
:10015000F894EC9130953E233C938FBF089527305F
:10016000A9F02830C9F0243059F7809180008F7DA4
:1001700003C0809180008F7780938000E1CF84B5A9
:100180008F7784BDDDCF84B58F7DFBCF8091B000AC
:100190008F778093B000D4CF8091B0008F7DF9CF5E
:1001A0001F93CF93DF9311E0180F2091F0011217E6
:1001B000A1F1C091F101D091F201215070E060E015
:1001C00061F08F3FF1F430E050E040E06FEF7FEFFF
:1001D00080E090E00E947C07B901FE014091EC01B3
:1001E0005091ED01CF018C1B9D0B8417950798F45E
:1001F0004081469FC001479F900D11249083319606
:10020000EDCF812F90E0982F88270197622F70E023
:100210000E94CC07E2CF1093F001DF91CF911F91A4
:100220000895CF93DF9390E0FC01EA57FF4F2491AC
:100230008C559F4FFC0184918823C9F090E0880F72
:10024000991FFC01E859FF4FA591B491FC01E656B6
:10025000FF4FC591D49161110DC09FB7F8948C9157
:10026000209582238C938881282328839FBFDF9148
:10027000CF910895623051F49FB7F8943C91822F4A
:10028000809583238C93E8812E2BEFCF8FB7F89442
:10029000EC912E2B2C938FBFEACF8E3008F08E502E
:1002A0008770806480937C0080917A008064809362
:1002B0007A0080917A0086FDFCCF80917800909141
:1002C000790008953FB7F8948091450190914601D7
:1002D000A0914701B091480126B5A89B05C02F3FCA
:1002E00019F00196A11DB11D3FBFBA2FA92F982F5C
:1002F0008827BC01CD01620F711D811D911D42E057
:10030000660F771F881F991F4A95D1F708950F939D
:100310001F93CF93DF93CDB7DEB729970FB6F8942D
:10032000DEBF0FBECDBF0E9462010091F7011091A8
:10033000F8012091F9013091FA01601771078207E5
:10034000930740F46093F7017093F8018093F901EB
:100350009093FA010091F7011091F8012091F901B1
:100360003091FA01601B710B820B930B6C32714060
:1003700081059105C0F2F8948091EC019091ED0116
:100380009A838983E091F101F091F201DF011196E6
:10039000808189879091E801E091FB01F091FC0157
:1003A0008091FD01992309F445C09081982B98878D
:1003B0009081809589238F838F818C8388E08B83C4
:1003C00058856F8149853B812C8189819A81508331
:1003D00047FD252F3A952083262F39F0441F00C072
:1003E00000006083000000C0F2CF38E04D916083D0
:1003F0000000019761F7F093FC01E093FB0149874E
:100400003B832C839A83898378940E946201609352
:10041000F7017093F8018093F9019093FA012996FE
:100420000FB6F894DEBF0FBECDBFDF91CF911F9105
:100430000F9108959081982B9887908180958923BA
:100440008F838F818E8388E08D8358856F81498566
:100450003D812E8189819A81508347FD252F00C0DF
:1004600000C0208300C000C000C000C000C0608386
:100470000000262F3A9541F0441F000000C000C044
:1004800000C000C000C0E8CF38E04D9100C06083DC
:1004900000C0019709F7F093FC01E093FB01498745
:1004A0003D832E83AFCF8F929F92AF92BF92CF9218
:1004B000DF92EF92FF926B017C010E9462014B017F
:1004C0005C01C114D104E104F104B9F00E9462019D
:1004D000681979098A099B09683E7340810591056D
:1004E00080F321E0C21AD108E108F10888EE880EF5
:1004F00083E0981EA11CB11CE4CFFF90EF90DF9029
:10050000CF90BF90AF909F908F900895CF92DF9241
:10051000EF92FF920F931F93CF93DF93AB01BC0138
:10052000CB01AA27BB27E82EF52EEC01B0E0A0E016
:10053000D42E2091EA013091EB018091F10190914C
:10054000F201A217B30708F041C0CD2C2091F001B1
:100550008701222371F02C9FF0012D9FF00D1124B3
:100560000F2F2F9DF00111241F2F249F9001112484
:10057000C32EE091F6012091F301E2131BC09D010F
:10058000220F331F2A0F3B1F820F931FE091F301AD
:10059000E80FF92FF11D0083E091F401E80FF92F26
:1005A000F11D10832091F501820F911DFC01C08285
:1005B0001196BFCF9D01220F331F220F331F820FD1
:1005C000931FE80FF92FF11D1082E0CF892B11F056
:1005D0000E94870162E370E080E090E00E94530295
:1005E0008091490190914A01DF91CF911F910F9124
:1005F000FF90EF90DF90CF9008950895AF92BF9253
:10060000CF92DF92EF92FF920F931F93CF93DF93DE
:100610006C017B018B01040F151FEB015E01AE180D
:10062000BF08C017D10759F06991D601ED91FC912F
:100630000190F081E02DC6010995892B79F7C5015C
:10064000DF91CF911F910F91FF90EF90DF90CF90AE
:10065000BF90AF900895FC01538D448D252F30E05D
:10066000842F90E0821B930B541710F0CF960895BF
:1006700001970895FC01918D828D981761F0A28DEC
:10068000AE0FBF2FB11D5D968C91928D9F5F9F73B2
:10069000928F90E008958FEF9FEF0895FC01918D68
:1006A000828D981731F0828DE80FF11D858D90E0D5
:1006B00008958FEF9FEF0895FC01918D228D892F72
:1006C00090E0805C9F4F821B91098F73992708955A
:1006D0008BE491E00E945C0321E0892B09F420E087
:1006E000822F089580E090E0892B29F00E94680312
:1006F00081110C9400000895FC01A48DA80FB92F5E
:10070000B11DA35ABF4F2C91848D90E001968F7339
:100710009927848FA689B7892C93A089B1898C9158
:10072000837080648C93938D848D981306C00288A7
:10073000F389E02D80818F7D80830895EF92FF9271
:100740000F931F93CF93DF93EC0181E0888F9B8DF4
:100750008C8D98131AC0E889F989808185FF15C0AE
:100760009FB7F894EE89FF896083E889F9898081D1
:100770008370806480839FBF81E090E0DF91CF91A0
:100780001F910F91FF90EF900895F62E0B8D10E0C2
:100790000F5F1F4F0F731127E02E8C8D8E110CC031
:1007A0000FB607FCFACFE889F989808185FFF5CF7C
:1007B000CE010E947C03F1CFEB8DEC0FFD2FF11DDC
:1007C000E35AFF4FF0829FB7F8940B8FEA89FB89B9
:1007D00080818062CFCFCF93DF93EC01888D882317
:1007E000B9F0AA89BB89E889F9898C9185FD03C094
:1007F000808186FD0DC00FB607FCF7CF8C9185FF79
:10080000F2CF808185FFEDCFCE010E947C03E9CF3E
:10081000DF91CF910895FC0101900020E9F7319715
:10082000AF01481B590BBC018BE491E00C94FE0214
:100830008F929F92AF92BF92CF92DF92EF92FF92F0
:100840000F931F93CF93DF93CDB7DEB7A1970FB66A
:10085000F894DEBF0FBECDBF6C01990FEE08FF0804
:10086000F7FE47C06DE28BE491E00E949E038C018D
:1008700022273327A9012C193D094E095F0919A226
:10088000CE0181967C019AE0892E912CA12CB12C6D
:10089000CA01B901A50194010E949B07605DF7019F
:1008A00062937F01211531054105510589F790E0DB
:1008B00080E0309719F0CF010E940B04080F191F38
:1008C0008CE191E00E940B04800F911FA1960FB65E
:1008D000F894DEBF0FBECDBFDF91CF911F910F9176
:1008E000FF90EF90DF90CF90BF90AF909F908F9050
:1008F0000895A701960119A28E010F5D1F4F8AE08E
:10090000C82ED12CE12CF12CCA01B901A701960106
:100910000E949B07605DF80162938F0121153105EC
:100920004105510589F7309729F0CF010E940B044A
:100930008C01C6CF10E000E0C3CFCF93DF9380914E
:10094000490190914A01019690934A01809349018F
:100950008091490190914A010E944D01EC018FE183
:1009600091E00E940B04CE01DF91CF910C9418040A
:100970001F920F920FB60F9211242F933F938F93D4
:100980009F93AF93BF938091410190914201A091B9
:100990004301B09144013091400123E0230F2D37F2
:1009A00058F50196A11DB11D20934001809341018E
:1009B00090934201A0934301B0934401809145017B
:1009C00090914601A0914701B09148010196A11D67
:1009D000B11D8093450190934601A0934701B093C8
:1009E0004801BF91AF919F918F913F912F910F90AF
:1009F0000FBE0F901F90189526E8230F0296A11D99
:100A0000B11DD2CF1F920F920FB60F9211242F93C8
:100A10003F934F935F936F937F938F939F93AF9386
:100A2000BF93EF93FF93E0910201F09103010995C9
:100A3000FF91EF91BF91AF919F918F917F916F91B6
:100A40005F914F913F912F910F900FBE0F901F908C
:100A500018951F920F920FB60F9211242F933F9368
:100A60004F935F936F937F938F939F93AF93BF93B6
:100A7000EF93FF93E0910001F09101010995FF913F
:100A8000EF91BF91AF919F918F917F916F915F9106
:100A90004F913F912F910F900FBE0F901F9018957F
:100AA0001F920F920FB60F9211242F933F934F93E3
:100AB0005F936F937F938F939F93AF93BF93EF93C6
:100AC000FF938BE491E00E947C03FF91EF91BF9133
:100AD000AF919F918F917F916F915F914F913F91D6
:100AE0002F910F900FBE0F901F9018951F920F928D
:100AF0000FB60F9211242F938F939F93EF93FF9331
:100B0000E0915B01F0915C018081E0916101F091E5
:100B1000620182FD1BC09081809164018F5F8F73A1
:100B200020916501821741F0E0916401F0E0E55BFE
:100B3000FE4F958F80936401FF91EF919F918F916C
:100B40002F910F900FBE0F901F9018958081F4CFBA
:100B500010924E0110924D0188EE93E0A0E0B0E0BB
:100B600080934F0190935001A0935101B093520193
:100B70008EE091E090934C0180934B0185EC90E0E6
:100B8000909358018093570184EC90E090935A0120
:100B90008093590180EC90E090935C0180935B011D
:100BA00081EC90E090935E0180935D0182EC90E097
:100BB0009093600180935F0186EC90E090936201D6
:100BC0008093610110926401109265011092660198
:100BD000109267011092E9011092F0011092F70152
:100BE0001092F8011092F9011092FA0181E08093BD
:100BF000F6018093F3011092F40192E09093F501D5
:100C00008093E80184EB90E09093ED018093EC01F8
:100C10000E94ED079093F2018093F101009781F11A
:100C200024EBFC0111922A95E9F78CE390E0909374
:100C3000EB018093EA0186E090E09093EF018093CE
:100C4000EE018091E901882339F061E086E00E949D
:100C5000110186E00E948800EAEAF0E0E491F0E009
:100C6000EE0FFF1FE656FF4F859194919093FC0184
:100C70008093FB01ECE8F0E0E491E093FD0108953E
:100C80001092ED011092EC011092EB011092EA012A
:100C9000D2CF789484B5826084BD84B5816084BDF0
:100CA00085B5826085BD85B5816085BD80916E000A
:100CB000816080936E00109281008091810082603B
:100CC0008093810080918100816080938100809178
:100CD00080008160809380008091B1008460809367
:100CE000B1008091B00081608093B00080917A0063
:100CF000846080937A0080917A00826080937A0089
:100D000080917A00816080937A0080917A00806877
:100D100080937A001092C10062E082E00E9411018B
:100D20008091EE019091EF0197FD07C061E00E9474
:100D300011018091EE010E94880081E08093E90119
:100D400082E30E94D00060E070E0CB010E94860246
:100D50008091F1019091F201892B11F00E9487019D
:100D6000E0915B01F0915C0182E08083E0915701AA
:100D7000F09158011082E0915901F0915A0180E1FF
:100D8000808310926301E0915F01F091600186E041
:100D90008083E0915D01F0915E01808180618083BC
:100DA000E0915D01F0915E01808188608083E09137
:100DB0005D01F0915E01808180688083E0915D013A
:100DC000F0915E0180818F7D80838DE994E0909326
:100DD000010180930001809169008C7F8260809383
:100DE0006900E89ACC24CA9483E0D82EE12CF12C37
:100DF000C0E0D0E08EE00E944D012FEF30E0DC013A
:100E00000E94E007A70196010E947C07822F209391
:100E10003E0130933F010E94D00087E291E00E94A2
:100E20000B048091490190914A010E94180480911D
:100E30003C0190913D01892B41F080913E010E943F
:100E4000D00010923D0110923C018EE291E00E9490
:100E50000B0480913E0190913F010E941804809103
:100E6000490190914A018230910569F134F401976A
:100E700049F060E070E0CB0109C08330910539F1A1
:100E80000497B9F76FE770E080E090E00E94860277
:100E90008091490190914A01059724F010924A01EE
:100EA000109249016AE070E080E090E00E945302F5
:100EB000209709F49FCF0E946803882309F49ACFF2
:100EC0000E94000097CF6FEF70E0CB01DFCF60E0B2
:100ED0007FEF8FEF90E0DACF8091F1019091F201F6
:100EE0000E9489088091EE019091EF0197FD03C067
:100EF00060E00C9411010895052E97FB1EF40094F8
:100F00000E94930757FD07D00E949B0707FC03D060
:100F10004EF40C94930750954095309521953F4F92
:100F20004F4F5F4F089590958095709561957F4FD5
:100F30008F4F9F4F0895A1E21A2EAA1BBB1BFD01E4
:100F40000DC0AA1FBB1FEE1FFF1FA217B307E407A8
:100F5000F50720F0A21BB30BE40BF50B661F771F00
:100F6000881F991F1A9469F76095709580959095E0
:100F70009B01AC01BD01CF010895A29FB001B39FB9
:100F8000C001A39F700D811D1124911DB29F700D92
:100F9000811D1124911D0895AA1BBB1B51E107C09F
:100FA000AA1FBB1FA617B70710F0A61BB70B881FF9
:100FB000991F5A95A9F780959095BC01CD01089588
:100FC0000E94BD07B7FF0895821B930B0895EE0F93
:100FD000FF1F0590F491E02D09940F931F93CF9379
:100FE000DF938230910510F482E090E0E0910002FE
:100FF000F091010230E020E0B0E0A0E0309799F4F9
:101000002115310509F44AC0281B390B243031055C
:10101000D8F58A819B816115710589F1FB01938364
:101020008283FE0111C040815181028113814817E2
:101030005907E0F04817590799F4109761F0129694
:101040000C93129713961C933296CF01DF91CF9198
:101050001F910F9108950093000210930102F4CFA5
:101060002115310551F04217530738F0A901DB0172
:101070009A01BD01DF01F801C1CFEF01F9CF9093D3
:10108000010280930002CDCFFE01E20FF31F819396
:1010900091932250310939832883D7CF2091FE01C3
:1010A0003091FF01232B41F420910601309107017B
:1010B0003093FF012093FE0120910401309105013E
:1010C0002115310541F42DB73EB7409108015091EB
:1010D0000901241B350BE091FE01F091FF01E2179D
:1010E000F307A0F42E1B3F0B2817390778F0AC014B
:1010F0004E5F5F4F2417350748F04E0F5F1F509328
:10110000FF014093FE01819391939FCFF0E0E0E0D7
:101110009CCFCF93DF930097E9F0FC0132971382C5
:101120001282A0910002B0910102ED0130E020E0B6
:101130001097A1F420813181820F931F2091FE012D
:101140003091FF012817390709F061C0F093FF01C2
:10115000E093FE01DF91CF910895EA01CE17DF07FA
:10116000E8F54A815B819E0141155105B1F7E9011E
:10117000FB83EA8349915991C40FD51FEC17FD07F2
:1011800061F4808191810296840F951FE901998312
:101190008883828193819B838A83F0E0E0E01296CA
:1011A0008D919C9113970097B9F52D913C911197D2
:1011B000CD010296820F931F2091FE013091FF0115
:1011C0002817390739F6309751F51092010210921D
:1011D0000002B093FF01A093FE01BCCFD383C28372
:1011E00040815181840F951FC817D90761F44E5F64
:1011F0005F4F88819981480F591F518340838A81AD
:101200009B81938382832115310509F0B0CFF09340
:101210000102E09300029ECFFD01DC01C0CF1382EA
:101220001282D7CF10E0CDE5D0E004C0FE010E94CD
:10123000E7072196CE35D107C9F7F894FFCFFD0215
:10124000FD02000002028000000000009E03FE027A
:101250002B03EB035C033A034E030D0A0044617455
:1012600061203A20004D6F64653A20004272696740
:0A12700068746E6573733A20000085
:107E0000112484B714BE81FFF0D085E080938100F7
:107E100082E08093C00088E18093C10086E0809377
:107E2000C20080E18093C4008EE0C9D0259A86E02C
:107E300020E33CEF91E0309385002093840096BBD3
:107E4000B09BFECF1D9AA8958150A9F7CC24DD24C4
:107E500088248394B5E0AB2EA1E19A2EF3E0BF2EE7
:107E6000A2D0813461F49FD0082FAFD0023811F036
:107E7000013811F484E001C083E08DD089C08234E0
:107E800011F484E103C0853419F485E0A6D080C0E4
:107E9000853579F488D0E82EFF2485D0082F10E0AE
:107EA000102F00270E291F29000F111F8ED06801E7
:107EB0006FC0863521F484E090D080E0DECF843638
:107EC00009F040C070D06FD0082F6DD080E0C81688
:107ED00080E7D80618F4F601B7BEE895C0E0D1E017
:107EE00062D089930C17E1F7F0E0CF16F0E7DF06D8
:107EF00018F0F601B7BEE89568D007B600FCFDCFD4
:107F0000A601A0E0B1E02C9130E011968C91119780
:107F100090E0982F8827822B932B1296FA010C0160
:107F200087BEE89511244E5F5F4FF1E0A038BF0790
:107F300051F7F601A7BEE89507B600FCFDCF97BE46
:107F4000E89526C08437B1F42ED02DD0F82E2BD052
:107F50003CD0F601EF2C8F010F5F1F4F84911BD097
:107F6000EA94F801C1F70894C11CD11CFA94CF0C13
:107F7000D11C0EC0853739F428D08EE10CD085E9AC
:107F80000AD08FE07ACF813511F488E018D01DD067
:107F900080E101D065CF982F8091C00085FFFCCF94
:107FA0009093C60008958091C00087FFFCCF809118
:107FB000C00084FD01C0A8958091C6000895E0E648
:107FC000F0E098E1908380830895EDDF803219F02E
:107FD00088E0F5DFFFCF84E1DECF1F93182FE3DFCA
:107FE0001150E9F7F2DF1F91089580E0E8DFEE27F6
:047FF000FF270994CA
:027FFE00040479
:00000001FF
