:020000040000FA
:100000000C945E000C94C7050C94A0050C9486001B
:100010000C9486000C9486000C9486000C94860048
:100020000C9486000C9486000C9486000C94860038
:100030000C9486000C9486000C9486000C94860028
:100040000C9456050C9486000C9414060C94EE0542
:100050000C9486000C9486000C9486000C94860008
:100060000C9486000C9486000000000024002700F9
:100070002A0000000008000201000003040700003D
:10008000000000000000010204081020408001026E
:1000900004081020010204081020000000002500C0
:1000A00028002B00040404040404040402020202D5
:1000B00002020303030303034606CD0811241FBEF7
:1000C000CFEFD8E0DEBFCDBF11E0A0E0B1E0E0E0CF
:1000D000F5E102C005900D92A233B107D9F721E0F6
:1000E000A2E3B1E001C01D92A43FB207E1F710E026
:1000F000CDE5D0E004C02197FE010E944809CC352F
:10010000D107C9F70E94E7060C94730A0C9400000B
:1001100090E0FC01EE58FF4F2491FC01EA57FF4F9D
:100120003491FC01EC55FF4FE491EE23B9F022230A
:1001300039F02330F1F098F4213009F1223019F12F
:10014000F0E0EE0FFF1FE656FF4FA591B4918FB779
:10015000F894EC9130953E233C938FBF089527305F
:10016000A9F02830C9F0243059F7809180008F7DA4
:1001700003C0809180008F7780938000E1CF84B5A9
:100180008F7784BDDDCF84B58F7DFBCF8091B000AC
:100190008F778093B000D4CF8091B0008F7DF9CF5E
:1001A0001F93CF93DF9311E0180F2091E2011217F4
:1001B000A1F1C091E301D091E401215070E060E031
:1001C00061F08F3FF1F430E050E040E06FEF7FEFFF
:1001D00080E090E00E94DD08B901FE014091DE015F
:1001E0005091DF01CF018C1B9D0B8417950798F46C
:1001F0004081469FC001479F900D11249083319606
:10020000EDCF812F90E0982F88270197622F70E023
:100210000E942D09E2CF1093E201DF91CF911F914F
:1002200008958F929F92AF92BF92CF92DF92EF92FA
:10023000FF92CF932091DC013091DD01821793076B
:10024000E8F54B01AA24BB24C82DC52ED62EE72ED7
:10025000FF24BC2DA42F2091E201222361F0829E75
:1002600040011124C92D2C9D60011124BD2D249F16
:10027000F0011124AF2FE091E801E090E301F0904C
:10028000E4013091E501E31323C09C01220F331FE9
:10029000820F931F8E0D9F1DE091E501E80FF92F4E
:1002A000F11DC083E091E601E80FF92FF11DB08345
:1002B0002091E701820F911DFC01A083CF91FF9057
:1002C000EF90DF90CF90BF90AF909F908F90089568
:1002D000880F991F880F991F8E0D9F1D472F552737
:1002E00066277727222349F030E0249F7001259F5D
:1002F000F00C349FF00C11244F2DE80FF92FF11D55
:100300004083CACFCF93DF9390E0FC01EA57FF4FC1
:1003100024918C559F4FFC0184918823C9F090E073
:10032000880F991FFC01E859FF4FA591B491FC017A
:10033000E656FF4FC591D49161110DC09FB7F89457
:100340008C91209582238C938881282328839FBFBA
:10035000DF91CF910895623051F49FB7F8943C91AA
:10036000822F809583238C93E8812E2BEFCF8FB73C
:10037000F894EC912E2B2C938FBFEACF3FB7F894D3
:100380008091370190913801A0913901B0913A01E3
:1003900026B5A89B05C02F3F19F00196A11DB11DE0
:1003A0003FBFBA2FA92F982F8827BC01CD01620F1C
:1003B000711D811D911D42E0660F771F881F991FD7
:1003C0004A95D1F708950F931F93CF93DF93CDB73D
:1003D000DEB729970FB6F894DEBF0FBECDBF809170
:1003E000E3019091E401892B09F47CC00E94BE01D5
:1003F0000091E9011091EA012091EB013091EC01AB
:10040000601771078207930740F46093E9017093C6
:10041000EA018093EB019093EC010091E9011091C6
:10042000EA012091EB013091EC01601B710B820B12
:10043000930B6C32714081059105C0F2F894809164
:10044000DE019091DF019A838983E091E301F091CD
:10045000E401DF011196808189879091DA01E091B2
:10046000ED01F091EE018091EF01992309F445C06F
:100470009081982B98879081809589238F838F8195
:100480008C8388E08B8358856F8149853B812C81E3
:1004900089819A81508347FD252F3A952083262F05
:1004A00039F0441F00C000006083000000C0F2CF9C
:1004B00038E04D9160830000019761F7F093EE0101
:1004C000E093ED0149873B832C839A838983789459
:1004D0000E94BE016093E9017093EA018093EB01F1
:1004E0009093EC0129960FB6F894DEBF0FBECDBFF6
:1004F000DF91CF911F910F9108959081982B98874C
:100500009081809589238F838F818E8388E08D836E
:1005100058856F8149853D812E8189819A815083DB
:1005200047FD252F00C000C0208300C000C000C0D0
:1005300000C000C060830000262F3A9541F0441FA0
:10054000000000C000C000C000C000C0E8CF38E01C
:100550004D9100C0608300C0019709F7F093EE0150
:10056000E093ED0149873D832E83AFCF8F929F9219
:10057000AF92BF92CF92DF92EF92FF926B017C011C
:100580000E94BE014B015C01C114D104E104F104DD
:10059000B9F00E94BE01681979098A099B09683E71
:1005A00073408105910580F321E0C21AD108E1086A
:1005B000F10888EE880E83E0981EA11CB11CE4CFE0
:1005C000FF90EF90DF90CF90BF90AF909F908F9073
:1005D0000895CF92DF92EF92FF92CF93DF936B015A
:1005E0007C01D0E0C0E08091DC019091DD01C81772
:1005F000D907A8F4B701A601CE010E9411010E94FB
:10060000E30162E370E080E090E00E94B602809136
:100610003B0190913C01019711F42196E4CFDF91C9
:10062000CF91FF90EF90DF90CF9008958F929F929F
:10063000AF92BF92EF92FF920F931F93CF93DF93EE
:100640004B015C018AE0E82EF12CD0E0C0E010E024
:1006500000E08091DC019091DD010817190750F44A
:10066000B501A401CE01800F911F0E9411010D5F01
:100670001F4FEFCF0E94E30162E370E080E090E063
:100680000E94B60210E000E08091DC019091DD0153
:100690000817190758F440E050E0BA01CE01800F66
:1006A000911F0E9411010D5F1F4FEECF2196C330A5
:1006B000D10569F680913B0190913C01029729F4A4
:1006C00081E0E81AF10809F0C0CFDF91CF911F91C6
:1006D0000F91FF90EF90BF90AF909F908F900895F3
:1006E00080913B0190913C01019690933C01809355
:1006F0003B0108950895AF92BF92CF92DF92EF929F
:10070000FF920F931F93CF93DF936C017B018B01BB
:10071000040F151FEB015E01AE18BF08C017D1070B
:1007200059F06991D601ED91FC910190F081E02D95
:10073000C6010995892B79F7C501DF91CF911F91EA
:100740000F91FF90EF90DF90CF90BF90AF90089502
:10075000FC01538D448D252F30E0842F90E0821BC7
:10076000930B541710F0CF96089501970895FC014C
:10077000918D828D981761F0A28DAE0FBF2FB11DA4
:100780005D968C91928D9F5F9F73928F90E00895FC
:100790008FEF9FEF0895FC01918D828D981731F0B6
:1007A000828DE80FF11D858D90E008958FEF9FEF0A
:1007B0000895FC01918D228D892F90E0805C9F4FE0
:1007C000821B91098F73992708958DE391E00E9410
:1007D000D90321E0892B09F420E0822F089580E0DD
:1007E00090E0892B29F00E94E50381110C94000010
:1007F0000895FC01A48DA80FB92FB11DA35ABF4FB6
:100800002C91848D90E001968F739927848FA6890F
:10081000B7892C93A089B1898C91837080648C9363
:10082000938D848D981306C00288F389E02D808112
:100830008F7D80830895EF92FF920F931F93CF9344
:10084000DF93EC0181E0888F9B8D8C8D98131AC00B
:10085000E889F989808185FF15C09FB7F894EE89F2
:10086000FF896083E889F98980818370806480834F
:100870009FBF81E090E0DF91CF911F910F91FF909A
:10088000EF900895F62E0B8D10E00F5F1F4F0F7342
:100890001127E02E8C8D8E110CC00FB607FCFACFFD
:1008A000E889F989808185FFF5CFCE010E94F9039F
:1008B000F1CFEB8DEC0FFD2FF11DE35AFF4FF082CE
:1008C0009FB7F8940B8FEA89FB8980818062CFCF34
:1008D000CF93DF93EC01888D8823B9F0AA89BB8977
:1008E000E889F9898C9185FD03C0808186FD0DC062
:1008F0000FB607FCF7CF8C9185FFF2CF808185FF83
:10090000EDCFCE010E94F903E9CFDF91CF91089599
:10091000282F2095253598F4822F880F880F622F75
:10092000681B9FEF960F692F70E090E080E0CB018D
:1009300077276627322F330F230F622B08952A3A29
:1009400088F42555622F660F620F70E090E080E01A
:10095000982F872F762F6627322F330F330F231BC5
:100960002150EBCF2A5A822F880F880F322F381B45
:100970003150622F660F620F70E090E080E0CB0193
:1009800077276627732B0895FC0101900020E9F773
:100990003197AF01481B590BBC018DE391E00C94DA
:1009A0007B038F929F92AF92BF92CF92DF92EF9292
:1009B000FF920F931F93CF93DF93CDB7DEB7A1972D
:1009C0000FB6F894DEBF0FBECDBF6C01990FEE08D5
:1009D000FF08F7FE47C06DE28DE391E00E941B0423
:1009E0008C0122273327A9012C193D094E095F09E3
:1009F00019A2CE0181967C019AE0892E912CA12C1E
:100A0000B12CCA01B901A50194010E94FC08605DE6
:100A1000F70162937F01211531054105510589F7E1
:100A200090E080E0309719F0CF010E94C404080FD5
:100A3000191F8CE191E00E94C404800F911FA196C0
:100A40000FB6F894DEBF0FBECDBFDF91CF911F91DF
:100A50000F91FF90EF90DF90CF90BF90AF909F905D
:100A60008F900895A701960119A28E010F5D1F4F67
:100A70008AE0C82ED12CE12CF12CCA01B901A701C2
:100A800096010E94FC08605DF80162938F012115B8
:100A900031054105510589F7309729F0CF010E94B2
:100AA000C4048C01C6CF10E000E0C3CF1F920F92A8
:100AB0000FB60F9211242F933F938F939F93AF9371
:100AC000BF938091330190913401A0913501B09191
:100AD00036013091320123E0230F2D3758F501966E
:100AE000A11DB11D209332018093330190933401F5
:100AF000A0933501B0933601809137019091380170
:100B0000A0913901B0913A010196A11DB11D8093C8
:100B1000370190933801A0933901B0933A01BF9106
:100B2000AF919F918F913F912F910F900FBE0F909A
:100B30001F90189526E8230F0296A11DB11DD2CF54
:100B40001F920F920FB60F9211242F933F934F9342
:100B50005F936F937F938F939F93AF93BF93EF9325
:100B6000FF93E0910201F09103010995FF91EF914C
:100B7000BF91AF919F918F917F916F915F914F91B5
:100B80003F912F910F900FBE0F901F9018951F92BD
:100B90000F920FB60F9211242F933F934F935F93B1
:100BA0006F937F938F939F93AF93BF93EF93FF9335
:100BB000E0910001F09101010995FF91EF91BF9142
:100BC000AF919F918F917F916F915F914F913F91E5
:100BD0002F910F900FBE0F901F9018951F920F929C
:100BE0000FB60F9211242F933F934F935F936F9300
:100BF0007F938F939F93AF93BF93EF93FF938DE377
:100C000091E00E94F903FF91EF91BF91AF919F9105
:100C10008F917F916F915F914F913F912F910F90A5
:100C20000FBE0F901F9018951F920F920FB60F9244
:100C300011242F938F939F93EF93FF93E0914D0196
:100C4000F0914E018081E0915301F091540182FDB9
:100C50001BC09081809156018F5F8F732091570147
:100C6000821741F0E0915601F0E0E35CFE4F958F72
:100C700080935601FF91EF919F918F912F910F904B
:100C80000FBE0F901F9018958081F4CF10924001F5
:100C900010923F0188EE93E0A0E0B0E08093410124
:100CA00090934201A0934301B09344018EE091E000
:100CB00090933E0180933D0185EC90E090934A0132
:100CC0008093490184EC90E090934C0180934B0118
:100CD00080EC90E090934E0180934D0181EC90E088
:100CE0009093500180934F0182EC90E090935201D9
:100CF0008093510186EC90E09093540180935301CE
:100D000010925601109257011092580110925901F9
:100D10001092DB011092E2011092E9011092EA01B7
:100D20001092EB011092EC0181E08093E801809336
:100D3000E5011092E60192E09093E7018093DA01D9
:100D400084EB90E09093DF018093DE010E944E09D6
:100D50009093E4018093E301009781F124EBFC017F
:100D600011922A95E9F78CE390E09093DD0180934E
:100D7000DC0186E090E09093E1018093E0018091B6
:100D8000DB01882339F061E086E00E94820186E081
:100D90000E948800EAEAF0E0E491F0E0EE0FFF1F25
:100DA000E656FF4F859194919093EE018093ED016B
:100DB000ECE8F0E0E491E093EF0108951092DF0198
:100DC0001092DE011092DD011092DC01D2CF7894F6
:100DD00084B5826084BD84B5816084BD85B5826040
:100DE00085BD85B5816085BD80916E0081608093F1
:100DF0006E0010928100809181008260809381005A
:100E00008091810081608093810080918000816069
:100E1000809380008091B10084608093B1008091C4
:100E2000B00081608093B00080917A0084608093EC
:100E30007A0080917A00826080937A0080917A00B3
:100E4000816080937A0080917A00806880937A0034
:100E50001092C10062E082E00E9482018091E00174
:100E60009091E10197FD07C061E00E9482018091AD
:100E7000E0010E94880081E08093DB0182E30E9410
:100E8000D0000E94E301E0914D01F0914E0182E01B
:100E90008083E0914901F0914A011082E0914B0179
:100EA000F0914C0180E1808310925501E091510155
:100EB000F091520186E08083E0914F01F091500162
:100EC000808180618083E0914F01F09150018081A9
:100ED00088608083E0914F01F091500180818068AB
:100EE0008083E0914F01F091500180818F7D80835C
:100EF00080E793E090930101809300018091690065
:100F00008C7F826080936900E89A80E4582E882460
:100F10008A9493E0992EA12CB12C66246A94712CAA
:100F200030E0C32E30E0D32E50927C0080917A00C6
:100F3000806480937A0080917A0086FDFCCFA09136
:100F40007800B09179002FEF30E00E944109A501AF
:100F500094010E94DD08E901822F0E94D0008FE1F8
:100F600091E00E94C40480913B0190913C010E9459
:100F7000D10485E291E00E94C404CE010E94D10414
:100F800080913B0190913C018330910509F476C03A
:100F90001CF58130910509F445C0029709F45BC046
:100FA00080913B0190913C01069724F010923C0106
:100FB00010923B016AE070E080E090E00E94B6028F
:100FC000C114D10409F4B0CF0E94E503882309F4C9
:100FD000ABCF0E940000A8CF8430910509F47AC0FD
:100FE000F12CE12C0597E1F6D0E0C0E010E000E044
:100FF0008091DC019091DD010817190708F09CC071
:10100000C701800F911FB3010E942D090E9488041F
:10101000AB01BC01CE01800F911F0E9411010D5F39
:101020001F4FE6CF60E070E08FEF90E00E94E90292
:1010300060E07FEF80E090E00E94E9026FEF70E0F7
:1010400080E090E00E94E90260E070E080E09FEFC5
:101050000E94E902A5CF6FE77FE78FE790E00E944B
:10106000160360E070E08FE790E00E9416036FE7E0
:1010700070E080E090E00E94160392CF10E000E064
:10108000D0E0C0E08091DC019091DD01C817D90764
:1010900058F48C2F800F0E948804AB01BC01CE0154
:1010A0000E9411012196EECF0E94E30168E070E0FA
:1010B00080E090E00E94B60280913B0190913C015B
:1010C000039709F06DCF0F5F1F4F011581E01807DF
:1010D000B9F666CFD0E0C0E0F12CE12C10E000E0E2
:1010E0006091DC017091DD010617170780F4C701DC
:1010F0000E942D098C2F860F0E948804AB01BC0131
:10110000C8010E9411010F5F1F4FF394E9CF0E94A5
:10111000E30168E070E080E090E00E94B602809118
:101120003B0190913C01049709F03ACF2196C115FB
:1011300085E0D80789F634CF0E94E30168E070E0CB
:1011400080E090E00E94B60210E000E08091DC01B7
:101150009091DD010817190758F440E050E0BA01FA
:10116000CE01800F911F0E9411010D5F1F4FEECF26
:101170002196C330D10509F039CF80913B01909180
:101180003C01059709F00CCF8FEFE81AF80AE1143B
:1011900081E0F80609F028CF03CF8091E301909118
:1011A000E4010E94EA098091E0019091E10197FD3C
:1011B00003C060E00C9482010895052E97FB1EF495
:1011C00000940E94F40857FD07D00E94FC0807FC19
:1011D00003D04EF40C94F408509540953095219529
:1011E0003F4F4F4F5F4F0895909580957095619553
:1011F0007F4F8F4F9F4F0895A1E21A2EAA1BBB1B52
:10120000FD010DC0AA1FBB1FEE1FFF1FA217B307D2
:10121000E407F50720F0A21BB30BE40BF50B661FE8
:10122000771F881F991F1A9469F7609570958095AC
:1012300090959B01AC01BD01CF010895A29FB00123
:10124000B39FC001A39F700D811D1124911DB29FFA
:10125000700D811D1124911D0895AA1BBB1B51E126
:1012600007C0AA1FBB1FA617B70710F0A61BB70B16
:10127000881F991F5A95A9F780959095BC01CD01BB
:1012800008950E941E09B7FF0895821B930B0895CD
:10129000EE0FFF1F0590F491E02D09940F931F931B
:1012A000CF93DF938230910510F482E090E0E091DB
:1012B000F201F091F30130E020E0B0E0A0E03097DF
:1012C00099F42115310509F44AC0281B390B243043
:1012D0003105D8F58A819B816115710589F1FB0182
:1012E00093838283FE0111C0408151810281138169
:1012F00048175907E0F04817590799F4109761F01B
:1013000012960C93129713961C933296CF01DF918D
:10131000CF911F910F9108950093F2011093F30163
:10132000F4CF2115310551F04217530738F0A901C8
:10133000DB019A01BD01DF01F801C1CFEF01F9CF57
:101340009093F3018093F201CDCFFE01E20FF31FE2
:10135000819391932250310939832883D7CF2091EB
:10136000F0013091F101232B41F4209106013091DD
:1013700007013093F1012093F00120910401309195
:1013800005012115310541F42DB73EB74091080103
:1013900050910901241B350BE091F001F091F1010E
:1013A000E217F307A0F42E1B3F0B2817390778F03C
:1013B000AC014E5F5F4F2417350748F04E0F5F1F9B
:1013C0005093F1014093F001819391939FCFF0E00E
:1013D000E0E09CCFCF93DF930097E9F0FC013297D8
:1013E00013821282A091F201B091F301ED0130E07D
:1013F00020E01097A1F420813181820F931F20916A
:10140000F0013091F1012817390709F061C0F0931C
:10141000F101E093F001DF91CF910895EA01CE1739
:10142000DF07E8F54A815B819E0141155105B1F75F
:10143000E901FB83EA8349915991C40FD51FEC1749
:10144000FD0761F4808191810296840F951FE90167
:1014500099838883828193819B838A83F0E0E0E093
:1014600012968D919C9113970097B9F52D913C910F
:101470001197CD010296820F931F2091F0013091B8
:10148000F1012817390739F6309751F51092F30119
:101490001092F201B093F101A093F001BCCFD3837D
:1014A000C28340815181840F951FC817D90761F409
:1014B0004E5F5F4F88819981480F591F5183408348
:1014C0008A819B81938382832115310509F0B0CFF6
:1014D000F093F301E093F2019ECFFD01DC01C0CF58
:1014E00013821282D7CF10E0CDE5D0E004C0FE0118
:1014F0000E9448092196CE35D107C9F7F894FFCF4D
:101500007A037A030000F4018000000000001B044D
:101510007B03A8036804D903B703CB030D0A006358
:101520006E743A20004272696768746E6573733A2C
:02153000200099
:107E0000112484B714BE81FFF0D085E080938100F7
:107E100082E08093C00088E18093C10086E0809377
:107E2000C20080E18093C4008EE0C9D0259A86E02C
:107E300020E33CEF91E0309385002093840096BBD3
:107E4000B09BFECF1D9AA8958150A9F7CC24DD24C4
:107E500088248394B5E0AB2EA1E19A2EF3E0BF2EE7
:107E6000A2D0813461F49FD0082FAFD0023811F036
:107E7000013811F484E001C083E08DD089C08234E0
:107E800011F484E103C0853419F485E0A6D080C0E4
:107E9000853579F488D0E82EFF2485D0082F10E0AE
:107EA000102F00270E291F29000F111F8ED06801E7
:107EB0006FC0863521F484E090D080E0DECF843638
:107EC00009F040C070D06FD0082F6DD080E0C81688
:107ED00080E7D80618F4F601B7BEE895C0E0D1E017
:107EE00062D089930C17E1F7F0E0CF16F0E7DF06D8
:107EF00018F0F601B7BEE89568D007B600FCFDCFD4
:107F0000A601A0E0B1E02C9130E011968C91119780
:107F100090E0982F8827822B932B1296FA010C0160
:107F200087BEE89511244E5F5F4FF1E0A038BF0790
:107F300051F7F601A7BEE89507B600FCFDCF97BE46
:107F4000E89526C08437B1F42ED02DD0F82E2BD052
:107F50003CD0F601EF2C8F010F5F1F4F84911BD097
:107F6000EA94F801C1F70894C11CD11CFA94CF0C13
:107F7000D11C0EC0853739F428D08EE10CD085E9AC
:107F80000AD08FE07ACF813511F488E018D01DD067
:107F900080E101D065CF982F8091C00085FFFCCF94
:107FA0009093C60008958091C00087FFFCCF809118
:107FB000C00084FD01C0A8958091C6000895E0E648
:107FC000F0E098E1908380830895EDDF803219F02E
:107FD00088E0F5DFFFCF84E1DECF1F93182FE3DFCA
:107FE0001150E9F7F2DF1F91089580E0E8DFEE27F6
:047FF000FF270994CA
:027FFE00040479
:00000001FF
